:100000000C942A000C9447000C9447000C94470071
:100010000C9447000C9447000C9447000C94470044
:100020000C9447000C9447000C9447000C94470034
:100030000C9447000C9447000C9447000C94470024
:100040000C9447000C9447000C9447000C94470014
:100050000C94470011241FBECFE5D4E0DEBFCDBF16
:1000600011E0A0E6B0E0E4E4F6E102C005900D92F4
:10007000A230B107D9F711E0A2E0B1E001C01D92B2
:10008000A732B107E1F70E949D020C94200B0C945B
:10009000000086B7846486BF08950E94490084EA00
:1000A00086BF06B607FEFDCF91B1987F81E09830FC
:1000B00009F480E0089584EA86BF06B607FEFDCF06
:1000C00091B1987F81E0903109F480E0089580FD3E
:1000D00002C028E101C020E483B984E886BF06B6E7
:1000E00007FEFDCF41B150E0487F507030E081E025
:1000F0004217530709F480E0089583B984E886BF66
:1001000006B607FEFDCF91B1987F81E0983209F4E1
:1001100080E0089584EC86BF06B607FEFDCF81B16E
:10012000887F803511F483B108958EE7089584E8BF
:1001300086BF06B607FEFDCF81B1887F883511F4F2
:1001400083B108958EE7089584E986BF0895982FB6
:10015000907F9BBBAE98AF9AE1EEF4E03197F1F758
:1001600000C00000AF9890E082959295907F98270C
:10017000807F98278BBBAE98AF9A81EE94E0019771
:10018000F1F700C00000AF98089582E00E94A70038
:1001900081EE94E00197F1F700C0000088E20E9430
:1001A000A70081EE94E00197F1F700C000008CE019
:1001B0000E94A70081EE94E00197F1F700C00000D3
:1001C00086E00E94A70081EE94E00197F1F700C05D
:1001D000000080E80E94A70081EE94E00197F1F70B
:1001E00000C00000089581E00E94A70081EE94E025
:1001F0000197F1F700C000000895982F907F9BBBF6
:10020000AE9AAF9AE1EEF4E03197F1F700C000004A
:10021000AF9890E082959295907F9827807F98275D
:100220008BBBAE9AAF9A81EE94E00197F1F700C0D4
:100230000000AF980895EF92FF920F931F93CF9312
:10024000DF93F82EE92E0F2D1E2DC0E0D0E006C062
:10025000F80181918F010E94FD002196EF2DFE2D66
:10026000DF010D900020E9F71197AE1BBF0BCA17F5
:10027000DB0770F3DF91CF911F910F91FF90EF900B
:1002800008950F931F93DF93CF9300D000D000D039
:10029000CDB7DEB78E010F5F1F4FA8012AE030E017
:1002A0000E94AE07C8010E941B0126960FB6F89463
:1002B000DEBF0FBECDBFCF91DF911F910F9108958B
:1002C000DF93CF930F92CDB7DEB790E8998361307B
:1002D00011F490EC998399818F77890F0E94A70080
:1002E0000F90CF91DF91089580E090E040E050E0E2
:1002F000BA010E941C0A08958AE090E061E20E941F
:100300000F0A0895EF92FF920F931F937B018C01C8
:10031000A89524E630E040E050E00E9443076C33AB
:10032000710581059105D4F024EC3FEF4FEF5FEFAD
:10033000E20EF31E041F151F2CE330E040E050E0F6
:100340000E944307CA01B90124E630E040E050E0D2
:100350000E942407E60EF71E081F191FC801B701E7
:1003600020E137E240E050E00E944307603737E188
:10037000730730E0830730E09307D4F020E938EECC
:100380004FEF5FEFE20EF31E041F151F20E737E16A
:1003900040E050E00E944307CA01B90120E137E282
:1003A00040E050E00E942407E60EF71E081F191FC8
:1003B00030E8E31639EAF30633E0030730E01307C9
:1003C00044F080E896E5ACEFBFEFE80EF91E0A1F97
:1003D0001B1F6E2D7F2D802F912F1F910F91FF904E
:1003E000EF9008958F929F92AF92BF92CF92DF923B
:1003F000EF92FF920F931F93DF93CF93CDB7DEB7AA
:100400002A970FB6F894DEBF0FBECDBF4B015C013B
:10041000A895611571058105910509F469C09B01D5
:10042000AC0100E010E00F2EFAE0CF2EF0E0DF2E5E
:10043000F0E0EF2EF0E0FF2EF02DCA01B901A70188
:1004400096010E9443070F5F1F4F2115310541059B
:10045000510599F7AE014F5F5F4F8AE0FA011192A3
:100460008A95E9F7C501B4012AE030E00E94AE07A1
:1004700005301105C9F480E30E94FD0089810E94C6
:10048000FD008AE30E94FD008A810E94FD008B81AD
:100490000E94FD008AE30E94FD008C810E94FD0005
:1004A0008D810E94FD0036C006301105C9F4898196
:1004B0000E94FD008A810E94FD008AE30E94FD00E7
:1004C0008B810E94FD008C810E94FD008AE30E94C6
:1004D000FD008D810E94FD008E810E94FD001AC0EA
:1004E00005301105BCF4C501B4010E94410112C0E0
:1004F000AE014F5F5F4F8AE0FA0111928A95E9F7EA
:1005000060E070E0CB012AE030E00E94AE0700E03E
:1005100010E0E6CF2A960FB6F894DEBF0FBECDBF2F
:10052000CF91DF911F910F91FF90EF90DF90CF90CF
:10053000BF90AF909F908F9008952F923F924F92CF
:100540005F926F927F928F929F92AF92BF92CF9263
:10055000DF92EF92FF920F931F93DF93CF93CDB76C
:10056000DEB7AD970FB6F894DEBF0FBECDBF88E102
:100570000FB6F89481BD11BC0FBE80EC84BB8FEF29
:100580008ABB97E097BB11BA82BB0E94C5000E944C
:1005900049000E941B070E94F30080B390E08F3E49
:1005A0009105E1F1803F910554F48F3B9105E1F114
:1005B0008F3D9105B1F18F379105E1F538C08B3F43
:1005C0009105D9F18C3F910524F4873F910591F570
:1005D00022C08D3F910521F08E3F910559F503C052
:1005E0000EE110E02CC00E94740180E060E00E94E7
:1005F000600180E690E00E941B018FEB94EDA1E08A
:1006000081509040A040E1F700C000000E94F3003C
:1006100008E210E014C002E310E011C00CE310E0A7
:100620000EC006E410E00BC000E510E008C00AE5CB
:1006300010E005C00DE210E002C008E210E080E02A
:1006400060E00E9460018FE690E00E941B01C801FB
:10065000AA2797FDA095BA2F8AA79BA7ACA7BDA7ED
:10066000BC01CD010E9441018FE59AEEA0E08150CE
:100670009040A040E1F700C000008E010F5F1F4FC7
:10068000C8010E941306CE014896B8010E94A70730
:10069000ADB7BEB750970FB6F894BEBF0FBEADBF93
:1006A000EDB7FEB731968E01005F1F4F12961C9377
:1006B0000E9311978EE790E093838283888D8483D5
:1006C0001582898D868317828B8D808711868C8D0C
:1006D000828713868E8D848715868F8D86871786F1
:1006E0000E94F7078DB79EB740960FB6F8949EBF4D
:1006F0000FBE8DBFC8010E9480077B018C0180E086
:1007000090E00E94090A262F372F482F592F5901B0
:100710006A01AE14BF04C006D10664F02E193F0969
:10072000400B510B20329EE4390790E0490790E0DE
:10073000590754F0C801B701625E7F4F8F4F9F4F3A
:100740000E9482015B016C0118BA8AE090E00E946D
:10075000010A8FA380E061E00E9460018BE890E0D5
:100760000E941B01C601B5010E94F2012FE088E141
:1007700090E00FB6F894A89581BD0FBE21BD19A6D3
:1007800018A60F2EFAE04F2EF0E05F2EF0E06F2E4D
:10079000F0E07F2EF02D4E010894811C911C222444
:1007A0003324689424F82C0E3D1EC4010E941306C5
:1007B000CE014896B4010E94A707ADB7BEB75097C7
:1007C0000FB6F894BEBF0FBEADBFEDB7FEB7319602
:1007D00012963C922E9211978EE790E0938382833B
:1007E000888D84831582898D868317828B8D80877F
:1007F00011868C8D828713868E8D848715868F8DCA
:10080000868717860E94F707ADB7BEB750960FB61A
:10081000F894BEBF0FBEADBFC1010E9480077B012F
:100820008C0180E060E00E946001D801C70180591E
:100830009F45A140B04086309105A105B10508F45F
:100840001FA2D601C5018E199F09A00BB10B8536D9
:100850009105A105B10594F4D801C70180569A4EBF
:10086000A040B040813021E7920722E0A20720E0BB
:10087000B20720F488B394E0892788BB84E990E02C
:100880000E941B01AFA16A2F70E080E090E00E94FF
:10089000410187E990E00E941B0186E060E00E9430
:1008A00060018BE990E00E941B01C4010E941B01C2
:1008B000EA14FB040C051D0579F5B3E0B8BB0E94F2
:1008C000F30080E060E00E9460018EE990E00E9409
:1008D0001B016AA57BA58CA59DA56E0D7F1D801FA4
:1008E000911F0E9482012B013C0180E061E00E9487
:1008F00060018FEA90E00E941B01C301B2010E94D7
:10090000F2012FA12F5F2FA38AE090E0622F0E94B7
:100910000F0A81E089A788A7E414F50406051705E6
:1009200049F50E94F30018BA80E060E00E9460017F
:1009300088EB90E00E941B01C801B701605F784D11
:100940008F4F9F4F0E9482015B016C0180E061E04C
:100950000E9460018BE890E00E941B01C601B50176
:100960000E94F20180E090E0B601A5010E941C0AFD
:1009700019A618A6AE14BF04C006D1065CF598A54A
:10098000992341F5AEE3AA16A7E1BA06A0E0CA068C
:10099000A0E0DA06FCF00E94F30080E060E00E9434
:1009A000600189EC90E00E941B018FE996E8A1E0CC
:1009B00081509040A040E1F700C00000C801B7019D
:1009C0006B5F7F4F8F4F9F4F0E9482015B016C01D5
:1009D00091E098A74E145F046006710614F5A9A56E
:1009E000A130F9F40E94F30080E060E00E94600111
:1009F00088ED90E00E941B018FE996E8A1E081500C
:100A00009040A040E1F700C0000018BAC801B7014B
:100A10006B5F7F4F8F4F9F4F0E9482012B013C01E4
:100A200019A6A8958FED92E2A2E081509040A040D7
:100A3000E1F700C00000B9CEEF92FF920F931F9331
:100A4000CF93DF930E944D00813019F40E94A400DF
:100A50003DC080ED0E946700813019F40E94A4001F
:100A600035C080E00E947D00813019F40E94A4000E
:100A70002DC00E945B00813019F40E94A40026C0A2
:100A800081ED0E946700813049F40E94A4001EC0DD
:100A9000C017D10771F40E94970016C0C2E0D1E0E0
:100AA0008E01095F1F4FEE24FF246894E3F8EC0EDB
:100AB000FD1E0E948A008E3719F40E94A40006C011
:100AC0008993CE15DF0521F70E94A400DF91CF9115
:100AD0001F910F91FF90EF90089580910F0190E08A
:100AE0008770907082959295907F9827807F982745
:100AF000209110012F70822B8093020180910C01B4
:100B000090E08770907082959295907F9827807F73
:100B1000982720910D012F70822B80930301E9E02B
:100B2000F1E0808190E08370907082959295907F43
:100B30009827807F982721812F70822B8093040132
:100B40008091180190E08370907082959295907FCB
:100B50009827807F9827209119012F70822B8093EE
:100B6000060180911B0190E08170907082959295B2
:100B7000907F9827807F982720911C012F70822BCF
:100B800080930701909120019295907F809121019F
:100B90008F70892B809308010895CF93DF93EC0128
:100BA0000E946D050E941C051A8688E091E0209144
:100BB00008012F70206329872091080122952F704A
:100BC0002063288720E32F8322E32E834FE24D8387
:100BD000FC0122912F7020632C83208130E0207152
:100BE0003070359527953595279535952795359509
:100BF000279520632B834A83FC01329780818F7075
:100C000080638983808190E080739070959587954B
:100C10009595879595958795959587958063888314
:100C2000DF91CF910895CF93DF93EC010E946D0582
:100C30000E941C051886809102018F7080638F834B
:100C40008091020182958F7080638E832AE32D83C9
:100C5000809103018F7080638C838091030190E009
:100C600080779070959587959595879595958795BB
:100C70009595879580638B832A83809104018F707B
:100C8000806389838091040190E0807390709595D2
:100C90008795959587959595879595958795806383
:100CA0008883DF91CF9108950F931F93CF93DF93A4
:100CB0000E944D00813021F40E94A40081E026C0F2
:100CC00080ED0E946700813021F40E94A40081E041
:100CD0001DC080E00E947D00813021F40E94A400AC
:100CE00081E014C0C2E0D1E08E010D5F1F4F8991F9
:100CF0000E947D00813021F40E94A40081E006C0A2
:100D0000C017D107A1F70E94A40080E0DF91CF9126
:100D10001F910F9108950F931F93CF93DF930E941C
:100D20004D00813021F40E94A40081E026C080EDB6
:100D30000E946700813021F40E94A40081E01DC060
:100D400084E00E947D00813021F40E94A40081E0B3
:100D500014C0C6E0D1E08E010D5F1F4F89910E9443
:100D60007D00813021F40E94A40081E006C0C017FC
:100D7000D107A1F70E94A40080E0DF91CF911F91DD
:100D80000F91089580E38093090180930A019AE30B
:100D900090930B0184E380930C0185E380930D0114
:100DA00090930E0180930F01809310010E946D05B6
:100DB0000E945406882379F00E94F30080EC0E9480
:100DC000A70088EE90E00E941B0187E893E101975D
:100DD000F1F700C00000089582E38093180191E3C9
:100DE000909319013FE230931A0120E320931B01F5
:100DF00080931C0130931D0180931E0120931F01DD
:100E00009093200186E3809321010E946D050E944A
:100E10008B06882379F00E94F30080E80E94A700E7
:100E200085EF90E00E941B018BE49DE10197F1F7B3
:100E300000C00000089516BE88E480B911B884E4AB
:100E400086BF80E090E00895629FD001739FF0011B
:100E5000829FE00DF11D649FE00DF11D929FF00D4A
:100E6000839FF00D749FF00D659FF00D9927729F81
:100E7000B00DE11DF91F639FB00DE11DF91FBD010C
:100E8000CF011124089597FB092E05260ED057FD9A
:100E900004D014D00AD0001C38F4509540953095F9
:100EA00021953F4F4F4F5F4F0895F6F790958095EE
:100EB000709561957F4F8F4F9F4F0895A1E21A2E35
:100EC000AA1BBB1BFD010DC0AA1FBB1FEE1FFF1FEE
:100ED000A217B307E407F50720F0A21BB30BE40B3E
:100EE000F50B661F771F881F991F1A9469F7609585
:100EF0007095809590959B01AC01BD01CF0108953F
:100F00001F93FC0199278827BC01E89411911032A6
:100F1000E9F3193010F01E30C8F31B3251F01D32C6
:100F200049F4689406C00E94E207610F711D811D9B
:100F3000911D119110531A30B0F33EF490958095A5
:100F4000709561957F4F8F4F9F4F1F910895FB01C3
:100F5000DC0101900D920020E1F70895FA01CF9392
:100F6000FF93EF93223044F1253234F5C22FE894F9
:100F7000CA3049F497FB3EF4909580957095619541
:100F80007F4F8F4F9F4F2C2F332744275527FF9399
:100F9000EF930E945E07EF91FF91605D6A330CF062
:100FA000695D6193B901CA01605070408040904012
:100FB00051F716F4CDE2C19310828F919F91CF919A
:100FC0000C943F0A592F482F372F262F660F771F73
:100FD000881F991F660F771F881F991F620F731F45
:100FE000841F951F660F771F881F991F0895AEE015
:100FF000B0E0EDEFF7E00C94F70A0D891E8986E06A
:101000008C831A8309838FEF9FE79E838D839E01D4
:10101000275E3F4FCE0101966F89788DA9010E940E
:101020001A08EF81F885E00FF11F10822E96E4E098
:101030000C94130BACE0B0E0E0E2F8E00C94E90AA9
:101040006C011B018A01FC0117821682838181FFDA
:10105000D1C12E010894411C511CF6019381F1016C
:1010600093FD859193FF81911F01882309F4BEC1EF
:10107000853239F493FD859193FF81911F0185326B
:1010800029F490E0B6010E944F0AE7CFEE24FF2436
:1010900020E02032B0F48B3269F08C3228F48032B8
:1010A00051F0833271F40BC08D3239F0803349F442
:1010B00021602CC02260246029C0286027C02061E4
:1010C00025C027FD2CC0382F30533A3098F426FF26
:1010D00008C08E2D880FE82EEE0CEE0CE80EE30E05
:1010E00015C08F2D880FF82EFF0CFF0CF80EF30E95
:1010F00020620CC08E3221F426FD78C1206406C027
:101100008C3611F4206802C0883649F4F10193FD51
:10111000859193FF81911F01882309F0BACF982F01
:101120009554933018F09052933028F40C5F1F4F71
:10113000FFE3F9830DC0833631F0833771F08335D7
:1011400009F060C022C0F801808189830E5F1F4FC3
:10115000420171E0A72EB12C16C062E0662E712C00
:10116000600E711EF8018080918026FF03C06E2DF5
:1011700070E002C06FEF7FEFC4012C870E94340A39
:101180005C0183012C852F7717C052E0652E712CEE
:10119000600E711EF8018080918026FF03C06E2DC5
:1011A00070E002C06FEF7FEFC4012C870E94290A14
:1011B0005C012C852068830123FD20C008C080E2EB
:1011C00090E0B6012C870E944F0AFA942C858F2D4F
:1011D00090E0A816B90698F311C0F40127FD859197
:1011E00027FF81914F0190E0B6012C870E944F0AA2
:1011F0002C85F110FA940894A108B108A114B10447
:1012000061F7F1C0843611F0893649F527FF08C02F
:10121000F80160817181828193810C5F1F4F09C049
:10122000F80160817181882777FD8095982F0E5F86
:101230001F4F4FE6B42EB22297FF09C090958095BC
:10124000709561957F4F8F4F9F4FF0E8BF2AA201A5
:101250002AE030E00E947B0A782E741845C085375A
:1012600031F43FEEB32EB2222AE030E025C099EFF0
:10127000B92EB2228F36C1F0803720F4883509F0BC
:10128000B5C00DC0803721F0883709F0AFC002C06B
:1012900020E1B22AB4FE0BC084E0B82A08C0B4FE34
:1012A00009C0E6E0BE2A06C028E030E005C020E123
:1012B00030E002C020E132E0B7FE08C0F8016081F2
:1012C0007181828193810C5F1F4F07C0F80160819B
:1012D000718180E090E00E5F1F4FA2010E947B0AA7
:1012E000782E7418FFE7BF22B6FE0BC02EEFB22295
:1012F0007E1438F4B4FE07C0B2FC05C08FEEB822ED
:1013000002C0A72C01C0AE2C8B2D90E0B4FE0DC006
:10131000FE01E70DF11D2081203319F4E9EEBE2214
:1013200009C0A394B2FE06C004C0867890700097EE
:1013300009F0A3948B2C9924B3FC14C0B0FE0FC009
:10134000AF1428F4E72CEF0CEA18AF2C08C0E72CF8
:1013500006C080E290E0B6010E944F0AA394AF1449
:10136000C0F304C0AF1410F4FA1801C0FF2484FEC7
:101370000FC080E390E0B6010E944F0A82FE1FC0BA
:1013800081FE03C088E590E010C088E790E00DC0C2
:10139000C40186789070009791F081FC02C080E2D1
:1013A00001C08BE2B7FC8DE290E0B6010E944F0ACB
:1013B00006C080E390E0B6010E944F0AEA947E14D2
:1013C000C0F37A94F201E70DF11D808190E0B6013F
:1013D0000E944F0A7720A9F706C080E290E0B6018C
:1013E0000E944F0AFA94FF20C1F737CEF6012681FA
:1013F000378102C02FEF3FEFC9012C96E2E10C9438
:10140000050BE199FECF9FBB8EBBE09A99278DB368
:101410000895A6E1B0E044E050E00C94DB0A262FEA
:10142000E199FECF9FBB8EBB2DBB0FB6F894E29A1D
:10143000E19A0FBE01960895242F0E94100A252FCD
:101440000E94100A0C94240A0E940F0A272F0C9461
:10145000100AFC010590615070400110D8F780958A
:1014600090958E0F9F1F0895FC0161507040019070
:101470000110D8F7809590958E0F9F1F0895DC017D
:10148000FC01672F71917723E1F7329704C07C91BB
:101490006D9370836291AE17BF07C8F308950F93E1
:1014A0001F93CF93DF938C01EB018B8181FF1BC0D6
:1014B00082FF0DC02E813F818C819D8128173907C5
:1014C00064F4E881F9810193F983E88306C0E88533
:1014D000F985802F0995009731F48E819F810196BF
:1014E0009F838E8302C00FEF1FEFC801DF91CF9162
:1014F0001F910F910895FA01AA27283051F1203148
:1015000081F1E8946F936E7F6E5F7F4F8F4F9F4F97
:10151000AF4FB1E03ED0B4E03CD0670F781F891FD9
:101520009A1FA11D680F791F8A1F911DA11D6A0FA7
:10153000711D811D911DA11D20D009F468943F915A
:101540002AE0269F11243019305D3193DEF6CF0159
:101550000895462F4770405D4193B3E00FD0C9F71F
:10156000F6CF462F4F70405D4A3318F0495D31FD8C
:101570004052419302D0A9F7EACFB4E0A6959795DF
:10158000879577956795BA95C9F7009761057105B5
:1015900008959B01AC010A2E0694579547953795FF
:1015A0002795BA95C9F7620F731F841F951FA01D59
:1015B0000895DC01CB01FC01E199FECF06C0FFBB21
:1015C000EEBBE09A31960DB20D9241505040B8F703
:1015D00008952F923F924F925F926F927F928F92D7
:1015E0009F92AF92BF92CF92DF92EF92FF920F93B2
:1015F0001F93CF93DF93CDB7DEB7CA1BDB0B0FB6BC
:10160000F894DEBF0FBECDBF09942A883988488878
:101610005F846E847D848C849B84AA84B984C8840E
:10162000DF80EE80FD800C811B81AA81B981CE0F05
:10163000D11D0FB6F894DEBF0FBECDBFED010895EA
:04164000F894FFCF4C
:10164400454550524F4D20434C4541524544004F6F
:101654004E2054494D452044454C41593A00256398
:1016640025632563256325632563004E455854206F
:101674004F4E3A00433A0020202000543A002A2AD0
:101684002A2A4D4F544F52204F4E2A2A2A2A004EBE
:101694005854204F46463A002A2A2A4D4F544F5256
:1016A400204F46462A2A2A2A00696E7369646520F7
:1016B4004F4E2054494D4500696E73696465204F4F
:1016C40046462054494D450054696D652055706463
:1016D4006174656400446174652055706461746567
:0216E4006400A0
:00000001FF
