:100000000C942A000C9447000C9447000C94470071
:100010000C9447000C9447000C9447000C94470044
:100020000C9447000C9447000C9447000C94470034
:100030000C9447000C9447000C9447000C94470024
:100040000C9447000C9447000C9447000C94470014
:100050000C94470011241FBECFE5D4E0DEBFCDBF16
:1000600011E0A0E6B0E0E8E5F3E102C005900D92F2
:10007000A836B107D9F711E0A8E6B1E001C01D929A
:10008000AD38B107E1F70E9408020C94AA090C945C
:10009000000086B7846486BF08950E94490084EA00
:1000A00086BF06B607FEFDCF91B1987F81E09830FC
:1000B00009F480E0089584EA86BF06B607FEFDCF06
:1000C00091B1987F81E0903109F480E0089580FD3E
:1000D00002C028E101C020E483B984E886BF06B6E7
:1000E00007FEFDCF41B150E0487F507030E081E025
:1000F0004217530709F480E0089583B984E886BF66
:1001000006B607FEFDCF91B1987F81E0983209F4E1
:1001100080E0089584EC86BF06B607FEFDCF81B16E
:10012000887F803511F483B108958EE7089584E8BF
:1001300086BF06B607FEFDCF81B1887F883511F4F2
:1001400083B108958EE7089584E986BF0895982FB6
:10015000907F9BBBAE98AF9AE1EEF4E03197F1F758
:1001600000C00000AF9890E082959295907F98270C
:10017000807F98278BBBAE98AF9A81EE94E0019771
:10018000F1F700C00000AF98089582E00E94A70038
:1001900081EE94E00197F1F700C0000088E20E9430
:1001A000A70081EE94E00197F1F700C000008CE019
:1001B0000E94A70081EE94E00197F1F700C00000D3
:1001C00086E00E94A70081EE94E00197F1F700C05D
:1001D000000080E80E94A70081EE94E00197F1F70B
:1001E00000C00000089581E00E94A70081EE94E025
:1001F0000197F1F700C000000895982F907F9BBBF6
:10020000AE9AAF9AE1EEF4E03197F1F700C000004A
:10021000AF9890E082959295907F9827807F98275D
:100220008BBBAE9AAF9A81EE94E00197F1F700C0D4
:100230000000AF980895EF92FF920F931F93CF9312
:10024000DF93F82EE92E082F192FC0E0D0E006C06A
:10025000F80181918F010E94FD002196EF2DFE2D66
:10026000DF010D900020E9F71197AE1BBF0BCA17F5
:10027000DB0770F3DF91CF911F910F91FF90EF900B
:100280000895CF93DF9300D000D000D0CDB7DEB774
:10029000AE014F5F5F4F2AE030E00E947A06CE0148
:1002A00001960E941B0126960FB6F894DEBF0FBE82
:1002B000CDBFDF91CF910895CF93DF930F92CDB74C
:1002C000DEB790E89983613011F490EC99839981BD
:1002D0008F77890F0E94A7000F90DF91CF9108952B
:1002E000CF92DF92EF92FF926B017C01A89524E6FA
:1002F00030E040E050E00E9406066C337105810555
:100300009105E4F024EC3FEF4FEF5FEFC20ED31EF8
:10031000E41EF51E2CE330E040E050E00E940606AB
:10032000CA01B90124E630E040E050E00E94E70550
:10033000DC01CB01C80ED91EEA1EFB1EC701B601A7
:1003400020E137E240E050E00E940606603737E1E6
:10035000730730E0830730E09307E4F020E938EEDC
:100360004FEF5FEFC20ED31EE41EF51E20E737E10C
:1003700040E050E00E940606CA01B90120E137E2E0
:1003800040E050E00E94E705DC01CB01C80ED91E19
:10039000EA1EFB1E30E8C31639EAD30633E0E30653
:1003A00030E0F30644F080E896E5ACEFBFEFC80E0E
:1003B000D91EEA1EFB1E6C2D7D2D8E2D9F2DFF90CC
:1003C000EF90DF90CF900895CF93DF93CDB7DEB756
:1003D00027970FB6F894DEBF0FBECDBF0E9443062D
:1003E0006056704F8F4F9F4F0E947001AE014F5F5C
:1003F0005F4F2AE030E00E947A06CE0101962796F0
:100400000FB6F894DEBF0FBECDBFDF91CF91089538
:10041000CF93DF93CDB7DEB7E5970FB6F894DEBF85
:100420000FBECDBF11BA87E087BB8FEF82BB8ABBFF
:1004300080EC84BB0E94C5000E9449000E94DE053A
:100440000E94F300DE019E96E0E6F0E088E0019075
:100450000D928150E1F718BA60E00E945C010E94A1
:10046000F300EE2433242224FF241DAA0F2EF8E6E5
:10047000CF2EF0E0DF2EF02D0F2EF7E9AF2EF0E0BB
:10048000BF2EF02D0F2EFEE96F2EF0E07F2EF02D07
:100490000F2EF6EC8F2EF0E09F2EF02D0F2EFDECA0
:1004A0004F2EF0E05F2EF02DCE0101960E94D70472
:1004B000CE0140960E9492048DB79EB740970FB62A
:1004C000F8949EBF0FBE8DBFEDB7FEB731968E017B
:1004D000015E1F4FADB7BEB712961C930E931197D6
:1004E000D382C2828981848315828A81868317821E
:1004F0008C81808711868D81828713868F81848786
:1005000015868885868717860E94C3068DB79EB795
:1005100040960FB6F8949EBF0FBE8DBFC801BE01B6
:10052000625D7F4F0E946A06282F392F121613062C
:1005300014F5EE2001F118BA0E94F30080E060E0AB
:100540000E945C0185E790E00E941B0180E061E071
:100550000E945C0186E890E00E941B018FEF90E70B
:10056000A2E081509040A040E1F700C000000E944E
:10057000F300EE24FF24CE014F96B5010E946A06D7
:10058000282F392F1216130634F5CE014F96B301DA
:100590000E946A06282F392F3323ECF4FF20D9F468
:1005A0000E94F30080E060E00E945C0185EA90E038
:1005B0000E941B0180E061E00E945C0186EB90E0FC
:1005C0000E941B018FEF90E7A2E081509040A04075
:1005D000E1F700C00000CE014F96B4010E946A0608
:1005E000282F392F121613063CF5CE014F96B20173
:1005F0000E946A06282F392F3323F4F4FF2081F557
:100600000E94F30080E060E00E945C0184ED90E0D5
:100610000E941B0180E061E00E945C0186EB90E09B
:100620000E941B018FEF90E7A2E081509040A04014
:10063000E1F700C0000002C0FF2091F40E94F30027
:1006400084E060E00E945C01CE0101960E941B01E3
:1006500083E061E00E945C01CE0140960E941B0194
:1006600080B390E08F39910509F475C0803A910507
:100670004CF48F33910509F487C08F37910509F049
:1006800096C008C08F3B910501F18F3D910509F09F
:100690008EC047C09DA9992309F089C018BA0E944D
:1006A000F30080E060E00E945C0184EE90E00E9434
:1006B0001B0180E061E00E945C0183EF90E00E94FA
:1006C0001B01FF24A1E0ADAB72C0FF2009F06FC099
:1006D00081E088BBCE014F960E94E401BC01CE01AF
:1006E0008E960E9473060E94F30084E091E00E94BF
:1006F0001B0180E061E00E945C0187E191E00E94C3
:100700001B0184E061E00E945C01CE0101960E9421
:100710001B01EE24E39433242224FF24F3941DAA26
:1007200046C0222009F043C018BA0E94F30080E0BE
:1007300060E00E945C018BE191E00E941B0180E07F
:1007400061E00E945C0183EF90E00E941B01222483
:100750002394FF242CC0332051F518BA0E94F300D3
:1007600080E060E00E945C018DE291E00E941B014C
:1007700080E061E00E945C018BE391E00E941B013C
:1007800033243394FF2413C018BA0E94F30080E08E
:1007900060E00E945C018DE291E00E941B0180E01C
:1007A00061E00E945C018BE391E00E941B018FEFEE
:1007B00090E7A2E081509040A040E1F700C0000027
:1007C00073CEEF92FF920F931F93CF93DF930E940C
:1007D0004D00813019F40E94A4003DC080ED0E94BC
:1007E0006700813019F40E94A40035C080E00E94A7
:1007F0007D00813019F40E94A4002DC00E945B008E
:10080000813019F40E94A40026C081ED0E94670087
:10081000813049F40E94A4001EC0C017D10771F4B2
:100820000E94970016C0C8E6D1E08E01095F1F4FF5
:10083000EE24FF246894E3F8EC0EFD1E0E948A006B
:100840008E3719F40E94A40006C08993CE15DF05E7
:1008500021F70E94A400DF91CF911F910F91FF908B
:10086000EF9008958091750190E087709070829567
:100870009295907F9827807F9827909176019F701E
:10088000892B809368018091720190E0877090704D
:1008900082959295907F9827807F982790917301F9
:1008A0009F70892B80936901EFE6F1E0808190E0F1
:1008B0008370907082959295907F9827807F98277B
:1008C00091819F70892B80936A0180917E0190E0D5
:1008D0008370907082959295907F9827807F98275B
:1008E00090917F019F70892B80936C018091810191
:1008F00090E08170907082959295907F9827807F8C
:100900009827909182019F70892B80936D0190911F
:1009100086019295907F809187018F70892B8093BB
:100920006E010895CF93DF93EC010E9432040E9480
:10093000E1031A868EE691E020916E01322F3F701E
:100940003063398722952F702063288720E32F8317
:1009500022E32E834FE24D83FC0122912F7020630E
:100960002C83208130E020713070359527953595A6
:100970002795359527953595279520632B834A83B1
:10098000FC01329780818F7080638983808190E041
:100990008073907095958795959587959595879592
:1009A0009595879580638883DF91CF910895CF9344
:1009B000DF93EC010E9432040E94E10318868091CB
:1009C0006801982F9F7090639F8382958F708063DA
:1009D0008E832AE32D8380916901982F9F70906305
:1009E0009C8390E0807790709595879595958795F5
:1009F000959587959595879580638B832A838091BC
:100A00006A018F708063898380916A0190E08073AE
:100A100090709595879595958795959587959595DA
:100A2000879580638883DF91CF9108950F931F93FB
:100A3000CF93DF930E944D00813021F40E94A400E7
:100A400081E026C080ED0E946700813021F40E9481
:100A5000A40081E01DC080E00E947D00813021F46F
:100A60000E94A40081E014C0C8E6D1E08E010D5FB1
:100A70001F4F89910E947D00813021F40E94A400C3
:100A800081E006C0C017D107A1F70E94A40080E052
:100A9000DF91CF911F910F9108950F931F93CF93E3
:100AA000DF930E944D00813021F40E94A40081E078
:100AB00026C080ED0E946700813021F40E94A400CE
:100AC00081E01DC084E00E947D00813021F40E94FD
:100AD000A40081E014C0CCE6D1E08E010D5F1F4F71
:100AE00089910E947D00813021F40E94A40081E060
:100AF00006C0C017D107A1F70E94A40080E0DF91D3
:100B0000CF911F910F91089581E380936F0187E347
:100B1000809370019AE39093710185E38093720151
:100B200029E320937301909374018093750180935E
:100B300076010E9432040E941605882379F00E94F3
:100B4000F30080EC0E94A7008EE491E00E941B015C
:100B500087E893E10197F1F700C00000089582E370
:100B600080937E0191E390937F013FE23093800177
:100B700020E320938101809382013093830180934D
:100B80008401209385019093860186E380938701F9
:100B90000E9432040E944D05882379F00E94F300E0
:100BA00080E80E94A7008BE591E00E941B018BE486
:100BB0009DE10197F1F700C00000089516BE88E49A
:100BC00080B911B884E486BF80E090E00895629F08
:100BD000D001739FF001829FE00DF11D649FE00D35
:100BE000F11D929FF00D839FF00D749FF00D659F96
:100BF000F00D9927729FB00DE11DF91F639FB00D95
:100C0000E11DF91FBD01CF011124089597FB092EA5
:100C100005260ED057FD04D014D00AD0001C38F49D
:100C200050954095309521953F4F4F4F5F4F089518
:100C3000F6F790958095709561957F4F8F4F9F4FF8
:100C40000895A1E21A2EAA1BBB1BFD010DC0AA1F0D
:100C5000BB1FEE1FFF1FA217B307E407F50720F025
:100C6000A21BB30BE40BF50B661F771F881F991FA0
:100C70001A9469F760957095809590959B01AC01E9
:100C8000BD01CF0108951F93FC0199278827BC015E
:100C9000E89411911032E9F3193010F01E30C8F3C6
:100CA0001B3251F01D3249F4689406C00E94AE0612
:100CB000610F711D811D911D119110531A30B0F3F8
:100CC0003EF490958095709561957F4F8F4F9F4F23
:100CD0001F910895FB01DC018D9101908019011095
:100CE000D9F3990B0895FB01DC0101900D920020CE
:100CF000E1F70895FA01CF93FF93EF93223044F187
:100D0000253234F5C22FE894CA3049F497FB3EF4FB
:100D100090958095709561957F4F8F4F9F4F2C2FA9
:100D2000332744275527FF93EF930E942106EF9125
:100D3000FF91605D6A330CF0695D6193B901CA018E
:100D4000605070408040904051F716F4CDE2C1935E
:100D500010828F919F91CF910C94D908592F482FD1
:100D6000372F262F660F771F881F991F660F771F53
:100D7000881F991F620F731F841F951F660F771FAF
:100D8000881F991F0895AEE0B0E0E9ECF6E00C94FE
:100D900081090D891E8986E08C831A8309838FEF70
:100DA0009FE79E838D83AE01475E5F4FCE01019624
:100DB0006F89788D0E94E506EF81F885E00FF11FBD
:100DC00010822E96E4E00C949D09ADE0B0E0EBEECD
:100DD000F6E00C9473093C017D876C875A01FC0195
:100DE00017821682838181FFC8C12E010894411C9D
:100DF000511CF3019381EC85FD8593FD859193FF53
:100E00008191FD87EC87882309F4B3C1853241F4D1
:100E100093FD859193FF8191FD87EC87853229F4BD
:100E200090E0B3010E94E908E4CFFF24EE2410E033
:100E30001032B0F48B3269F08C3228F4803251F0E9
:100E4000833271F40BC08D3239F0803349F4116074
:100E50002CC01260146029C0186027C0106125C022
:100E600017FD2EC0282F20532A3098F416FF08C0F3
:100E70008F2D880FF82EFF0CFF0CF80EF20E15C008
:100E80008E2D880FE82EEE0CEE0CE80EE20E1062AE
:100E90000CC08E3221F416FD6CC1106406C08C3675
:100EA00011F4106802C0883659F4EC85FD8593FD75
:100EB000859193FF8191FD87EC87882309F0B8CF56
:100EC000982F9554933018F09052933038F424E0D2
:100ED00030E0A20EB31E3FE339830FC0833631F0FA
:100EE000833781F0833509F05AC022C0F501808133
:100EF000898322E030E0A20EB31E21E0C22ED12C65
:100F0000420114C092E0292E312C2A0C3B1CF50121
:100F10008080918016FF03C06F2D70E002C06FEFDC
:100F20007FEFC4010E94CE086C0151011F7715C0EC
:100F300082E0282E312C2A0C3B1CF5018080918008
:100F400016FF03C06F2D70E002C06FEF7FEFC4018A
:100F50000E94C3086C011068510113FD1CC006C03B
:100F600080E290E0B3010E94E908EA948E2D90E0BF
:100F7000C816D906A8F30FC0F40117FD859117FF15
:100F800081914F0190E0B3010E94E908E110EA94D9
:100F90000894C108D108C114D10471F7E7C08436A0
:100FA00011F0893651F5F50117FF07C08081918155
:100FB000A281B38124E030E008C080819181AA271A
:100FC00097FDA095BA2F22E030E0A20EB31E012FAC
:100FD0000F76B7FF08C0B095A095909581959F4F6B
:100FE000AF4FBF4F0068BC01CD01A2012AE030E045
:100FF0000E941509D82ED4183FC0853721F41F7ED2
:101000002AE030E020C0197F8F36A9F0803720F425
:10101000883509F0AEC00BC0803721F0883709F061
:10102000A8C001C0106114FF09C0146007C014FFFC
:1010300008C0166006C028E030E005C020E130E0BE
:1010400002C020E132E0F50117FF07C06081718125
:101050008281938144E050E006C06081718180E02C
:1010600090E042E050E0A40EB51EA2010E941509D6
:10107000D82ED418012F0F7706FF09C00E7FDF147A
:1010800030F404FF06C002FD04C00F7E02C01D2D17
:1010900001C01F2D802F90E004FF0CC0FE01ED0D5C
:1010A000F11D2081203311F4097E09C002FF06C022
:1010B0001E5F05C086789070009709F01F5F802E34
:1010C000992403FD12C000FF0DC0FD2C1E1550F425
:1010D000FE0CF11A1E2D06C080E290E0B3010E94C2
:1010E000E9081F5F1E15C0F304C01E1510F4E11AB5
:1010F00001C0EE2484FE0FC080E390E0B3010E94A3
:10110000E90882FE1FC081FE03C088E590E010C0A0
:1011100088E790E00DC0C40186789070009791F048
:1011200081FC02C080E201C08BE207FD8DE290E00D
:10113000B3010E94E90806C080E390E0B3010E9479
:10114000E908FA94DF14C0F3DA94F201ED0DF11D11
:10115000808190E0B3010E94E908DD20A9F706C074
:1011600080E290E0B3010E94E908EA94EE20C1F722
:1011700040CEF3018681978102C08FEF9FEF2D96BD
:10118000E2E10C948F09FC01059061507040011060
:10119000D8F7809590958E0F9F1F0895FC016150A0
:1011A000704001900110D8F7809590958E0F9F1F89
:1011B0000895DC01FC01672F71917723E1F73297E5
:1011C00004C07C916D9370836291AE17BF07C8F322
:1011D00008950F931F93CF93DF938C01EB018B81C5
:1011E00081FF1BC082FF0DC02E813F818C819D81BC
:1011F0002817390764F4E881F9810193F983E883BA
:1012000006C0E885F985802F0995009731F48E8115
:101210009F8101969F838E8302C00FEF1FEFC8014D
:10122000DF91CF911F910F910895FA01AA272830DD
:1012300051F1203181F1E8946F936E7F6E5F7F4FA3
:101240008F4F9F4FAF4FB1E03ED0B4E03CD0670F1F
:10125000781F891F9A1FA11D680F791F8A1F911D72
:10126000A11D6A0F711D811D911DA11D20D009F4C2
:1012700068943F912AE0269F11243019305D319304
:10128000DEF6CF010895462F4770405D4193B3E0ED
:101290000FD0C9F7F6CF462F4F70405D4A3318F094
:1012A000495D31FD4052419302D0A9F7EACFB4E045
:1012B000A6959795879577956795BA95C9F70097FD
:1012C0006105710508959B01AC010A2E069457959E
:1012D000479537952795BA95C9F7620F731F841FF5
:1012E000951FA01D08952F923F924F925F926F928B
:1012F0007F928F929F92AF92BF92CF92DF92EF92A6
:10130000FF920F931F93CF93DF93CDB7DEB7CA1B26
:10131000DB0B0FB6F894DEBF0FBECDBF09942A8851
:10132000398848885F846E847D848C849B84AA84F9
:10133000B984C884DF80EE80FD800C811B81AA8186
:10134000B981CE0FD11D0FB6F894DEBF0FBECDBF51
:08135000ED010895F894FFCFB0
:1013580039393939393939002563256325632563D6
:10136800256325630043524F53534544204F4E2075
:101378004C494D4954002020204D4F544F52204F86
:1013880046462020202000303630303030003039BA
:1013980030303030002020474F4F44204D4F524EC0
:1013A800494E472020002020554E434C45204155AA
:1013B8004E54494520003137303030300031393013
:1013C800303030002020474F4F44204556454E4985
:1013D8004E4720004F564552204845414420465527
:1013E8004C4C004D4F544F52205455524E454420BA
:1013F8004F4646004D4F544F52205455524E454487
:10140800204F4E2041540041542000554E4445522F
:1014180047524F554E4420454D50545900202020E6
:10142800204D4F544F522020202000202054555248
:101438004E4544204F4646202000A00F0000546926
:101448006D6520557064617465640044617465203D
:081458005570646174656400C5
:00000001FF
