:100000000C942A000C9447000C9447000C94470071
:100010000C9447000C9447000C9447000C94470044
:100020000C9447000C9447000C9447000C94470034
:100030000C9447000C9447000C9447000C94470024
:100040000C9447000C9447000C9447000C94470014
:100050000C94470011241FBECFE5D4E0DEBFCDBF16
:1000600010E0A0E6B0E0E4EBF6E102C005900D92EE
:10007000AE3FB107D9F711E0AEEFB0E001C01D927D
:10008000A332B107E1F70E949D020C94580B0C9427
:10009000000086B7846486BF08950E94490084EA00
:1000A00086BF06B607FEFDCF91B1987F81E09830FC
:1000B00009F480E0089584EA86BF06B607FEFDCF06
:1000C00091B1987F81E0903109F480E0089580FD3E
:1000D00002C028E101C020E483B984E886BF06B6E7
:1000E00007FEFDCF41B150E0487F507030E081E025
:1000F0004217530709F480E0089583B984E886BF66
:1001000006B607FEFDCF91B1987F81E0983209F4E1
:1001100080E0089584EC86BF06B607FEFDCF81B16E
:10012000887F803511F483B108958EE7089584E8BF
:1001300086BF06B607FEFDCF81B1887F883511F4F2
:1001400083B108958EE7089584E986BF0895982FB6
:10015000907F9BBBAE98AF9AE1EEF4E03197F1F758
:1001600000C00000AF9890E082959295907F98270C
:10017000807F98278BBBAE98AF9A81EE94E0019771
:10018000F1F700C00000AF98089582E00E94A70038
:1001900081EE94E00197F1F700C0000088E20E9430
:1001A000A70081EE94E00197F1F700C000008CE019
:1001B0000E94A70081EE94E00197F1F700C00000D3
:1001C00086E00E94A70081EE94E00197F1F700C05D
:1001D000000080E80E94A70081EE94E00197F1F70B
:1001E00000C00000089581E00E94A70081EE94E025
:1001F0000197F1F700C000000895982F907F9BBBF6
:10020000AE9AAF9AE1EEF4E03197F1F700C000004A
:10021000AF9890E082959295907F9827807F98275D
:100220008BBBAE9AAF9A81EE94E00197F1F700C0D4
:100230000000AF980895EF92FF920F931F93CF9312
:10024000DF93F82EE92E0F2D1E2DC0E0D0E006C062
:10025000F80181918F010E94FD002196EF2DFE2D66
:10026000DF010D900020E9F71197AE1BBF0BCA17F5
:10027000DB0770F3DF91CF911F910F91FF90EF900B
:1002800008950F931F93DF93CF9300D000D000D039
:10029000CDB7DEB78E010F5F1F4FA8012AE030E017
:1002A0000E94E607C8010E941B0126960FB6F8942B
:1002B000DEBF0FBECDBFCF91DF911F910F9108958B
:1002C000DF93CF930F92CDB7DEB790E8998361307B
:1002D00011F490EC998399818F77890F0E94A70080
:1002E0000F90CF91DF91089580E090E040E050E0E2
:1002F000BA010E94540A08958AE090E060E00E94EA
:10030000470A0895EF92FF920F931F937B018C0190
:10031000A89524E630E040E050E00E947B076C3373
:10032000710581059105D4F024EC3FEF4FEF5FEFAD
:10033000E20EF31E041F151F2CE330E040E050E0F6
:100340000E947B07CA01B90124E630E040E050E09A
:100350000E945C07E60EF71E081F191FC801B701AF
:1003600020E137E240E050E00E947B07603737E150
:10037000730730E0830730E09307D4F020E938EECC
:100380004FEF5FEFE20EF31E041F151F20E737E16A
:1003900040E050E00E947B07CA01B90120E137E24A
:1003A00040E050E00E945C07E60EF71E081F191F90
:1003B00030E8E31639EAF30633E0030730E01307C9
:1003C00044F080E896E5ACEFBFEFE80EF91E0A1F97
:1003D0001B1F6E2D7F2D802F912F1F910F91FF904E
:1003E000EF9008958F929F92AF92BF92CF92DF923B
:1003F000EF92FF920F931F93DF93CF93CDB7DEB7AA
:100400002A970FB6F894DEBF0FBECDBF4B015C013B
:10041000A895611571058105910509F469C09B01D5
:10042000AC0100E010E00F2EFAE0CF2EF0E0DF2E5E
:10043000F0E0EF2EF0E0FF2EF02DCA01B901A70188
:1004400096010E947B070F5F1F4F21153105410563
:10045000510599F7AE014F5F5F4F8AE0FA011192A3
:100460008A95E9F7C501B4012AE030E00E94E60769
:1004700005301105C9F480E30E94FD0089810E94C6
:10048000FD008AE30E94FD008A810E94FD008B81AD
:100490000E94FD008AE30E94FD008C810E94FD0005
:1004A0008D810E94FD0036C006301105C9F4898196
:1004B0000E94FD008A810E94FD008AE30E94FD00E7
:1004C0008B810E94FD008C810E94FD008AE30E94C6
:1004D000FD008D810E94FD008E810E94FD001AC0EA
:1004E00005301105BCF4C501B4010E94410112C0E0
:1004F000AE014F5F5F4F8AE0FA0111928A95E9F7EA
:1005000060E070E0CB012AE030E00E94E60700E006
:1005100010E0E6CF2A960FB6F894DEBF0FBECDBF2F
:10052000CF91DF911F910F91FF90EF90DF90CF90CF
:10053000BF90AF909F908F9008952F923F924F92CF
:100540005F926F927F928F929F92AF92BF92CF9263
:10055000DF92EF92FF920F931F93DF93CF93CDB76C
:10056000DEB7E1970FB6F894DEBF0FBECDBF88E1CE
:100570000FB6F89481BD11BC0FBE80EC84BB8FEF29
:100580008ABB97E097BB11BA82BB0E94C5000E944C
:1005900049000E9453070E94F30080B390E08F3E11
:1005A0009105E1F1803F910554F48F3B9105E1F114
:1005B0008F3D9105B1F18F379105E1F538C08B3F43
:1005C0009105D9F18C3F910524F4873F910591F570
:1005D00022C08D3F910521F08E3F910559F503C052
:1005E0000CE310E02CC00E94740180E060E00E94E7
:1005F000600180E690E00E941B018FEB94EDA1E08A
:1006000081509040A040E1F700C000000E94F3003C
:1006100008E210E014C008EC10E011C00CE211E098
:100620000EC000E911E00BC004EF11E008C00CEBB4
:1006300012E005C002E310E002C008E210E080E032
:1006400060E00E9460018FE690E00E941B01C801FB
:10065000AA2797FDA095BA2F8EA79FA7A8ABB9ABE5
:10066000BC01CD010E9441018FE59AEEA0E08150CE
:100670009040A040E1F700C000008E010F5F1F4FC7
:10068000C8010E944906CE014896B8010E94DF07C2
:10069000ADB7BEB750970FB6F894BEBF0FBEADBF93
:1006A000EDB7FEB731968E01005F1F4F12961C9377
:1006B0000E93119789E790E093838283888D8483DA
:1006C0001582898D868317828B8D808711868C8D0C
:1006D000828713868E8D848715868F8D86871786F1
:1006E0000E942F088DB79EB740960FB6F8949EBF14
:1006F0000FBE8DBFC8010E94B8077B018C0180E04E
:1007000090E00E94410A262F372F482F592F390198
:100710004A016E147F048006910664F02E193F0989
:10072000400B510B21329EE4390790E0490790E0DD
:10073000590754F0C801B701625E7F4F8F4F9F4F3A
:100740000E9482013B014C0118BA8AE090E00E94AD
:10075000390A8BA780E061E00E94600186E890E0A2
:100760000E941B01C401B3010E94F2012FE088E145
:1007700090E00FB6F894A89581BD0FBE21BD1DA6CF
:100780001CA68AE090E0A0E0B0E08FA398A7A9A7FC
:10079000BAA72E010894411C511C222433246894CA
:1007A00024F82C0E3D1EC2010E944906CE01489637
:1007B000B2010E94DF07ADB7BEB750970FB6F894ED
:1007C000BEBF0FBEADBFEDB7FEB7319612963C92DD
:1007D0002E92119789E790E093838283888D84839A
:1007E0001582898D868317828B8D808711868C8DEB
:1007F000828713868E8D848715868F8D86871786D0
:100800000E942F08ADB7BEB750960FB6F894BEBF82
:100810000FBEADBFC1010E94B8077B018C0180E013
:1008200060E00E946001D801C70180599F45A14046
:10083000B04086309105A105B10530F48AE090E022
:1008400060E00E94470A1BA60F2EFCE9AF2EFFEFC7
:10085000BF2EFFEFCF2EFFEFDF2EF02DA60CB71C23
:10086000C81CD91CC601B50120E137E240E050E0C8
:100870000E947B076037B7E17B07B0E08B07B0E0F1
:100880009B0744F080E690EFAFEFBFEFA80EB91ED4
:10089000CA1EDB1EEA14FB040C051D05BCF06E1419
:1008A0007F048006910694F0D801C70180579141DA
:1008B000A140B040813E22E2920722E0A20720E060
:1008C000B20720F488B394E0892788BB8FE890E0D2
:1008D0000E941B01ABA56A2F70E080E090E00E94AF
:1008E000410182E990E00E941B0186E060E00E94E5
:1008F000600186E990E00E941B01C2010E941B0179
:10090000E614F7040805190599F5B3E0B8BB0E9491
:10091000F30080E060E00E94600189E990E00E94BD
:100920001B016EA57FA588A999A96E0D7F1D801F4B
:10093000911F0E9482016FA378A789A79AA780E0E0
:1009400061E00E9460018AEA90E00E941B016FA1B1
:1009500078A589A59AA50E94F2012BA52F5F2BA748
:100960008AE090E0622F0E94470A81E08DA78CA761
:100970008FA198A5A9A5BAA5E816F9060A071B072D
:1009800049F50E94F30018BA80E060E00E9460011F
:1009900083EB90E00E941B01C801B701605E714BC0
:1009A0008F4F9F4F0E9482013B014C0180E061E02C
:1009B0000E94600186E890E00E941B01C401B3011F
:1009C0000E94F20180E090E0B401A3010E94540A69
:1009D0001DA61CA66E147F04800691065CF59CA5DE
:1009E000992341F5A0E26A16AEE47A06A0E08A06F1
:1009F000A0E09A06FCF00E94F30080E060E00E9414
:100A0000600184EC90E00E941B018FE996E8A1E070
:100A100081509040A040E1F700C00000C801B7013C
:100A20006B5F7F4F8F4F9F4F0E9482013B014C01B4
:100A300091E09CA78FA198A5A9A5BAA58E159F05A1
:100A4000A007B10724F59DA5913009F50E94F30098
:100A500080E060E00E94600183ED90E00E941B0155
:100A60008FE996E8A1E081509040A040E1F700C0F6
:100A7000000018BAC801B7016B5F7F4F8F4F9F4FBF
:100A80000E9482016FA378A789A79AA71DA6A8959F
:100A90008FED92E2A2E081509040A040E1F700C0CB
:100AA000000081CEEF92FF920F931F93CF93DF93BD
:100AB0000E944D00813019F40E94A4003DC080EDD9
:100AC0000E946700813019F40E94A40035C080E0C4
:100AD0000E947D00813019F40E94A4002DC00E9464
:100AE0005B00813019F40E94A40026C081ED0E94B1
:100AF0006700813049F40E94A4001EC0C017D107CE
:100B000071F40E94970016C0CEEFD0E08E01095F0D
:100B10001F4FEE24FF246894E3F8EC0EFD1E0E94A4
:100B20008A008E3719F40E94A40006C08993CE155E
:100B3000DF0521F70E94A400DF91CF911F910F9153
:100B4000FF90EF90089580910B0190E08770907076
:100B500082959295907F9827807F982720910C010D
:100B60002F70822B8093FE008091080190E08770A7
:100B7000907082959295907F9827807F98272091FA
:100B800009012F70822B8093FF00E5E0F1E0808166
:100B900090E08370907082959295907F9827807FE7
:100BA000982721812F70822B80930001809114015E
:100BB00090E08370907082959295907F9827807FC7
:100BC0009827209115012F70822B8093020180912C
:100BD000170190E08170907082959295907F982790
:100BE000807F9827209118012F70822B809303011A
:100BF00090911C019295907F80911D018F70892B9F
:100C0000809304010895CF93DF93EC010E94A30524
:100C10000E9452051A8684E091E0209104012F7011
:100C2000206329872091040122952F702063288753
:100C300020E32F8322E32E834FE24D83FC01229198
:100C40002F7020632C83208130E020713070359527
:100C500027953595279535952795359527952063C3
:100C60002B834A83FC01329780818F708063898354
:100C7000808190E080739070959587959595879584
:100C8000959587959595879580638883DF91CF911A
:100C90000895CF93DF93EC010E94A3050E945205B3
:100CA00018868091FE008F7080638F838091FE0094
:100CB00082958F7080638E832AE32D838091FF005D
:100CC0008F7080638C838091FF0090E080779070BC
:100CD00095958795959587959595879595958795FC
:100CE00080638B832A83809100018F708063898366
:100CF0008091000190E0807390709595879595950F
:100D00008795959587959595879580638883DF91DD
:100D1000CF9108950F931F93CF93DF930E944D00BF
:100D2000813021F40E94A40081E026C080ED0E9461
:100D30006700813021F40E94A40081E01DC080E0A2
:100D40000E947D00813021F40E94A40081E014C043
:100D5000CEEFD0E08E010D5F1F4F89910E947D0084
:100D6000813021F40E94A40081E006C0C017D107A1
:100D7000A1F70E94A40080E0DF91CF911F910F9115
:100D800008950F931F93CF93DF930E944D008130FE
:100D900021F40E94A40081E026C080ED0E9467003B
:100DA000813021F40E94A40081E01DC084E00E94F3
:100DB0007D00813021F40E94A40081E014C0C2E0D3
:100DC000D1E08E010D5F1F4F89910E947D0081301F
:100DD00021F40E94A40081E006C0C017D107A1F74A
:100DE0000E94A40080E0DF91CF911F910F910895A0
:100DF00082E38093050183E3809306018AE3809375
:100E0000070195E39093080199E39093090180937A
:100E10000A0180E380930B0180930C010E94A305DB
:100E20000E948A06882379F00E94F30080EC0E94D9
:100E3000A70083EE90E00E941B0187E893E10197F1
:100E4000F1F700C00000089582E38093140191E35C
:100E5000909315013FE23093160120E32093170190
:100E6000809318013093190180931A0120931B017C
:100E700090931C0186E380931D010E94A3050E94AC
:100E8000C106882379F00E94F30080E80E94A70041
:100E900080EF90E00E941B018BE49DE10197F1F748
:100EA00000C00000089516BE88E480B911B884E43B
:100EB00086BF80E090E00895629FD001739FF001AB
:100EC000829FE00DF11D649FE00DF11D929FF00DDA
:100ED000839FF00D749FF00D659FF00D9927729F11
:100EE000B00DE11DF91F639FB00DE11DF91FBD019C
:100EF000CF011124089597FB092E05260ED057FD2A
:100F000004D014D00AD0001C38F450954095309588
:100F100021953F4F4F4F5F4F0895F6F7909580957D
:100F2000709561957F4F8F4F9F4F0895A1E21A2EC4
:100F3000AA1BBB1BFD010DC0AA1FBB1FEE1FFF1F7D
:100F4000A217B307E407F50720F0A21BB30BE40BCD
:100F5000F50B661F771F881F991F1A9469F7609514
:100F60007095809590959B01AC01BD01CF010895CE
:100F70001F93FC0199278827BC01E8941191103236
:100F8000E9F3193010F01E30C8F31B3251F01D3256
:100F900049F4689406C00E941A08610F711D811DF2
:100FA000911D119110531A30B0F33EF49095809535
:100FB000709561957F4F8F4F9F4F1F910895FB0153
:100FC000DC0101900D920020E1F70895FA01CF9322
:100FD000FF93EF93223044F1253234F5C22FE89489
:100FE000CA3049F497FB3EF49095809570956195D1
:100FF0007F4F8F4F9F4F2C2F332744275527FF9329
:10100000EF930E949607EF91FF91605D6A330CF0B9
:10101000695D6193B901CA016050704080409040A1
:1010200051F716F4CDE2C19310828F919F91CF9129
:101030000C94770A592F482F372F262F660F771FCA
:10104000881F991F660F771F881F991F620F731FD4
:10105000841F951F660F771F881F991F0895AEE0A4
:10106000B0E0E5E3F8E00C942F0B0D891E8986E0D3
:101070008C831A8309838FEF9FE79E838D839E0164
:10108000275E3F4FCE0101966F89788DA9010E949E
:101090005208EF81F885E00FF11F10822E96E4E0F0
:1010A0000C944B0BACE0B0E0E8E5F8E00C94210BBD
:1010B0006C011B018A01FC0117821682838181FF6A
:1010C000D1C12E010894411C511CF6019381F101FC
:1010D00093FD859193FF81911F01882309F4BEC17F
:1010E000853239F493FD859193FF81911F018532FB
:1010F00029F490E0B6010E94870AE7CFEE24FF248E
:1011000020E02032B0F48B3269F08C3228F4803247
:1011100051F0833271F40BC08D3239F0803349F4D1
:1011200021602CC02260246029C0286027C0206173
:1011300025C027FD2CC0382F30533A3098F426FFB5
:1011400008C08E2D880FE82EEE0CEE0CE80EE30E94
:1011500015C08F2D880FF82EFF0CFF0CF80EF30E24
:1011600020620CC08E3221F426FD78C1206406C0B6
:101170008C3611F4206802C0883649F4F10193FDE1
:10118000859193FF81911F01882309F0BACF982F91
:101190009554933018F09052933028F40C5F1F4F01
:1011A000FFE3F9830DC0833631F0833771F0833567
:1011B00009F060C022C0F801808189830E5F1F4F53
:1011C000420171E0A72EB12C16C062E0662E712C90
:1011D000600E711EF8018080918026FF03C06E2D85
:1011E00070E002C06FEF7FEFC4012C870E946C0A91
:1011F0005C0183012C852F7717C052E0652E712C7E
:10120000600E711EF8018080918026FF03C06E2D54
:1012100070E002C06FEF7FEFC4012C870E94610A6B
:101220005C012C852068830123FD20C008C080E27A
:1012300090E0B6012C870E94870AFA942C858F2DA6
:1012400090E0A816B90698F311C0F40127FD859126
:1012500027FF81914F0190E0B6012C870E94870AF9
:101260002C85F110FA940894A108B108A114B104D6
:1012700061F7F1C0843611F0893649F527FF08C0BF
:10128000F80160817181828193810C5F1F4F09C0D9
:10129000F80160817181882777FD8095982F0E5F16
:1012A0001F4F4FE6B42EB22297FF09C0909580954C
:1012B000709561957F4F8F4F9F4FF0E8BF2AA20135
:1012C0002AE030E00E94B30A782E741845C08537B2
:1012D00031F43FEEB32EB2222AE030E025C099EF80
:1012E000B92EB2228F36C1F0803720F4883509F04C
:1012F000B5C00DC0803721F0883709F0AFC002C0FB
:1013000020E1B22AB4FE0BC084E0B82A08C0B4FEC3
:1013100009C0E6E0BE2A06C028E030E005C020E1B2
:1013200030E002C020E132E0B7FE08C0F801608181
:101330007181828193810C5F1F4F07C0F80160812A
:10134000718180E090E00E5F1F4FA2010E94B30AFE
:10135000782E7418FFE7BF22B6FE0BC02EEFB22224
:101360007E1438F4B4FE07C0B2FC05C08FEEB8227C
:1013700002C0A72C01C0AE2C8B2D90E0B4FE0DC096
:10138000FE01E70DF11D2081203319F4E9EEBE22A4
:1013900009C0A394B2FE06C004C08678907000977E
:1013A00009F0A3948B2C9924B3FC14C0B0FE0FC099
:1013B000AF1428F4E72CEF0CEA18AF2C08C0E72C88
:1013C00006C080E290E0B6010E94870AA394AF14A1
:1013D000C0F304C0AF1410F4FA1801C0FF2484FE57
:1013E0000FC080E390E0B6010E94870A82FE1FC012
:1013F00081FE03C088E590E010C088E790E00DC052
:10140000C40186789070009791F081FC02C080E260
:1014100001C08BE2B7FC8DE290E0B6010E94870A22
:1014200006C080E390E0B6010E94870AEA947E1429
:10143000C0F37A94F201E70DF11D808190E0B601CE
:101440000E94870A7720A9F706C080E290E0B601E3
:101450000E94870AFA94FF20C1F737CEF601268151
:10146000378102C02FEF3FEFC9012C96E2E10C94C7
:101470003D0BE199FECF9FBB8EBBE09A99278DB3C0
:101480000895A6E1B0E044E050E00C94130B262F41
:10149000E199FECF9FBB8EBB2DBB0FB6F894E29AAD
:1014A000E19A0FBE01960895242F0E94480A252F25
:1014B0000E94480A0C945C0A0E94470A272F0C9449
:1014C000480AFC010590615070400110D8F78095E2
:1014D00090958E0F9F1F0895FC0161507040019000
:1014E0000110D8F7809590958E0F9F1F0895DC010D
:1014F000FC01672F71917723E1F7329704C07C914B
:101500006D9370836291AE17BF07C8F308950F9370
:101510001F93CF93DF938C01EB018B8181FF1BC065
:1015200082FF0DC02E813F818C819D812817390754
:1015300064F4E881F9810193F983E88306C0E885C2
:10154000F985802F0995009731F48E819F8101964E
:101550009F838E8302C00FEF1FEFC801DF91CF91F1
:101560001F910F910895FA01AA27283051F12031D7
:1015700081F1E8946F936E7F6E5F7F4F8F4F9F4F27
:10158000AF4FB1E03ED0B4E03CD0670F781F891F69
:101590009A1FA11D680F791F8A1F911DA11D6A0F37
:1015A000711D811D911DA11D20D009F468943F91EA
:1015B0002AE0269F11243019305D3193DEF6CF01E9
:1015C0000895462F4770405D4193B3E00FD0C9F7AF
:1015D000F6CF462F4F70405D4A3318F0495D31FD1C
:1015E0004052419302D0A9F7EACFB4E0A69597956F
:1015F000879577956795BA95C9F700976105710545
:1016000008959B01AC010A2E06945795479537958E
:101610002795BA95C9F7620F731F841F951FA01DE8
:101620000895DC01CB01FC01E199FECF06C0FFBBB0
:10163000EEBBE09A31960DB20D9241505040B8F792
:1016400008952F923F924F925F926F927F928F9266
:101650009F92AF92BF92CF92DF92EF92FF920F9341
:101660001F93CF93DF93CDB7DEB7CA1BDB0B0FB64B
:10167000F894DEBF0FBECDBF09942A883988488808
:101680005F846E847D848C849B84AA84B984C8849E
:10169000DF80EE80FD800C811B81AA81B981CE0F95
:1016A000D11D0FB6F894DEBF0FBECDBFED0108957A
:0416B000F894FFCFDC
:1016B400454550524F4D20434C4541524544004FFF
:1016C4004E2044454C41593A002563256325632542
:1016D4006325632563004E455854204F4E3A00431A
:1016E4003A0020202000543A002A2A2A2A4D4F5436
:1016F4004F52204F4E2A2A2A2A004E5854204F4631
:10170400463A002A2A2A4D4F544F52204F46462A21
:101714002A2A2A00696E73696465204F4E20544951
:101724004D4500696E73696465204F4646205449EF
:101734004D450054696D652055706461746564009D
:0E174400446174652055706461746564000032
:00000001FF
